{
  "_format": "hh-sol-artifact-1",
  "contractName": "TrustChain",
  "sourceName": "contracts/TrustChain.sol",
  "abi": [
    {
      "inputs": [],
      "stateMutability": "nonpayable",
      "type": "constructor"
    },
    {
      "anonymous": false,
      "inputs": [
        {
          "indexed": true,
          "internalType": "address",
          "name": "owner",
          "type": "address"
        },
        {
          "indexed": true,
          "internalType": "address",
          "name": "approved",
          "type": "address"
        },
        {
          "indexed": true,
          "internalType": "uint256",
          "name": "tokenId",
          "type": "uint256"
        }
      ],
      "name": "Approval",
      "type": "event"
    },
    {
      "anonymous": false,
      "inputs": [
        {
          "indexed": true,
          "internalType": "address",
          "name": "owner",
          "type": "address"
        },
        {
          "indexed": true,
          "internalType": "address",
          "name": "operator",
          "type": "address"
        },
        {
          "indexed": false,
          "internalType": "bool",
          "name": "approved",
          "type": "bool"
        }
      ],
      "name": "ApprovalForAll",
      "type": "event"
    },
    {
      "anonymous": false,
      "inputs": [
        {
          "indexed": false,
          "internalType": "uint256",
          "name": "tokenId",
          "type": "uint256"
        },
        {
          "indexed": false,
          "internalType": "string",
          "name": "batchId",
          "type": "string"
        },
        {
          "indexed": false,
          "internalType": "string",
          "name": "drugName",
          "type": "string"
        },
        {
          "indexed": false,
          "internalType": "address",
          "name": "manufacturer",
          "type": "address"
        }
      ],
      "name": "BatchMinted",
      "type": "event"
    },
    {
      "anonymous": false,
      "inputs": [
        {
          "indexed": false,
          "internalType": "uint256",
          "name": "tokenId",
          "type": "uint256"
        },
        {
          "indexed": false,
          "internalType": "address",
          "name": "from",
          "type": "address"
        },
        {
          "indexed": false,
          "internalType": "address",
          "name": "to",
          "type": "address"
        },
        {
          "indexed": false,
          "internalType": "string",
          "name": "newRole",
          "type": "string"
        }
      ],
      "name": "CustodyTransferred",
      "type": "event"
    },
    {
      "anonymous": false,
      "inputs": [
        {
          "indexed": true,
          "internalType": "address",
          "name": "previousOwner",
          "type": "address"
        },
        {
          "indexed": true,
          "internalType": "address",
          "name": "newOwner",
          "type": "address"
        }
      ],
      "name": "OwnershipTransferred",
      "type": "event"
    },
    {
      "anonymous": false,
      "inputs": [
        {
          "indexed": true,
          "internalType": "address",
          "name": "from",
          "type": "address"
        },
        {
          "indexed": true,
          "internalType": "address",
          "name": "to",
          "type": "address"
        },
        {
          "indexed": true,
          "internalType": "uint256",
          "name": "tokenId",
          "type": "uint256"
        }
      ],
      "name": "Transfer",
      "type": "event"
    },
    {
      "inputs": [
        {
          "internalType": "address",
          "name": "to",
          "type": "address"
        },
        {
          "internalType": "uint256",
          "name": "tokenId",
          "type": "uint256"
        }
      ],
      "name": "approve",
      "outputs": [],
      "stateMutability": "nonpayable",
      "type": "function"
    },
    {
      "inputs": [
        {
          "internalType": "address",
          "name": "owner",
          "type": "address"
        }
      ],
      "name": "balanceOf",
      "outputs": [
        {
          "internalType": "uint256",
          "name": "",
          "type": "uint256"
        }
      ],
      "stateMutability": "view",
      "type": "function"
    },
    {
      "inputs": [
        {
          "internalType": "uint256",
          "name": "",
          "type": "uint256"
        }
      ],
      "name": "batches",
      "outputs": [
        {
          "internalType": "string",
          "name": "ipfsHash",
          "type": "string"
        },
        {
          "internalType": "string",
          "name": "batchId",
          "type": "string"
        },
        {
          "internalType": "string",
          "name": "drugName",
          "type": "string"
        },
        {
          "internalType": "string",
          "name": "manufacturer",
          "type": "string"
        },
        {
          "internalType": "uint256",
          "name": "mintedAt",
          "type": "uint256"
        },
        {
          "internalType": "bool",
          "name": "isAuthentic",
          "type": "bool"
        }
      ],
      "stateMutability": "view",
      "type": "function"
    },
    {
      "inputs": [
        {
          "internalType": "uint256",
          "name": "",
          "type": "uint256"
        },
        {
          "internalType": "uint256",
          "name": "",
          "type": "uint256"
        }
      ],
      "name": "custodyTrail",
      "outputs": [
        {
          "internalType": "address",
          "name": "holder",
          "type": "address"
        },
        {
          "internalType": "uint256",
          "name": "timestamp",
          "type": "uint256"
        },
        {
          "internalType": "string",
          "name": "role",
          "type": "string"
        }
      ],
      "stateMutability": "view",
      "type": "function"
    },
    {
      "inputs": [
        {
          "internalType": "uint256",
          "name": "tokenId",
          "type": "uint256"
        }
      ],
      "name": "getApproved",
      "outputs": [
        {
          "internalType": "address",
          "name": "",
          "type": "address"
        }
      ],
      "stateMutability": "view",
      "type": "function"
    },
    {
      "inputs": [
        {
          "internalType": "address",
          "name": "owner",
          "type": "address"
        },
        {
          "internalType": "address",
          "name": "operator",
          "type": "address"
        }
      ],
      "name": "isApprovedForAll",
      "outputs": [
        {
          "internalType": "bool",
          "name": "",
          "type": "bool"
        }
      ],
      "stateMutability": "view",
      "type": "function"
    },
    {
      "inputs": [
        {
          "internalType": "address",
          "name": "to",
          "type": "address"
        },
        {
          "internalType": "string",
          "name": "ipfsHash",
          "type": "string"
        },
        {
          "internalType": "string",
          "name": "batchId",
          "type": "string"
        },
        {
          "internalType": "string",
          "name": "drugName",
          "type": "string"
        },
        {
          "internalType": "string",
          "name": "manufacturerName",
          "type": "string"
        }
      ],
      "name": "mintBatch",
      "outputs": [
        {
          "internalType": "uint256",
          "name": "",
          "type": "uint256"
        }
      ],
      "stateMutability": "nonpayable",
      "type": "function"
    },
    {
      "inputs": [],
      "name": "name",
      "outputs": [
        {
          "internalType": "string",
          "name": "",
          "type": "string"
        }
      ],
      "stateMutability": "view",
      "type": "function"
    },
    {
      "inputs": [],
      "name": "owner",
      "outputs": [
        {
          "internalType": "address",
          "name": "",
          "type": "address"
        }
      ],
      "stateMutability": "view",
      "type": "function"
    },
    {
      "inputs": [
        {
          "internalType": "uint256",
          "name": "tokenId",
          "type": "uint256"
        }
      ],
      "name": "ownerOf",
      "outputs": [
        {
          "internalType": "address",
          "name": "",
          "type": "address"
        }
      ],
      "stateMutability": "view",
      "type": "function"
    },
    {
      "inputs": [],
      "name": "renounceOwnership",
      "outputs": [],
      "stateMutability": "nonpayable",
      "type": "function"
    },
    {
      "inputs": [
        {
          "internalType": "address",
          "name": "from",
          "type": "address"
        },
        {
          "internalType": "address",
          "name": "to",
          "type": "address"
        },
        {
          "internalType": "uint256",
          "name": "tokenId",
          "type": "uint256"
        }
      ],
      "name": "safeTransferFrom",
      "outputs": [],
      "stateMutability": "nonpayable",
      "type": "function"
    },
    {
      "inputs": [
        {
          "internalType": "address",
          "name": "from",
          "type": "address"
        },
        {
          "internalType": "address",
          "name": "to",
          "type": "address"
        },
        {
          "internalType": "uint256",
          "name": "tokenId",
          "type": "uint256"
        },
        {
          "internalType": "bytes",
          "name": "data",
          "type": "bytes"
        }
      ],
      "name": "safeTransferFrom",
      "outputs": [],
      "stateMutability": "nonpayable",
      "type": "function"
    },
    {
      "inputs": [
        {
          "internalType": "address",
          "name": "operator",
          "type": "address"
        },
        {
          "internalType": "bool",
          "name": "approved",
          "type": "bool"
        }
      ],
      "name": "setApprovalForAll",
      "outputs": [],
      "stateMutability": "nonpayable",
      "type": "function"
    },
    {
      "inputs": [
        {
          "internalType": "bytes4",
          "name": "interfaceId",
          "type": "bytes4"
        }
      ],
      "name": "supportsInterface",
      "outputs": [
        {
          "internalType": "bool",
          "name": "",
          "type": "bool"
        }
      ],
      "stateMutability": "view",
      "type": "function"
    },
    {
      "inputs": [],
      "name": "symbol",
      "outputs": [
        {
          "internalType": "string",
          "name": "",
          "type": "string"
        }
      ],
      "stateMutability": "view",
      "type": "function"
    },
    {
      "inputs": [
        {
          "internalType": "uint256",
          "name": "tokenId",
          "type": "uint256"
        }
      ],
      "name": "tokenURI",
      "outputs": [
        {
          "internalType": "string",
          "name": "",
          "type": "string"
        }
      ],
      "stateMutability": "view",
      "type": "function"
    },
    {
      "inputs": [],
      "name": "totalBatches",
      "outputs": [
        {
          "internalType": "uint256",
          "name": "",
          "type": "uint256"
        }
      ],
      "stateMutability": "view",
      "type": "function"
    },
    {
      "inputs": [
        {
          "internalType": "uint256",
          "name": "tokenId",
          "type": "uint256"
        },
        {
          "internalType": "address",
          "name": "to",
          "type": "address"
        },
        {
          "internalType": "string",
          "name": "newHolderRole",
          "type": "string"
        }
      ],
      "name": "transferCustody",
      "outputs": [],
      "stateMutability": "nonpayable",
      "type": "function"
    },
    {
      "inputs": [
        {
          "internalType": "address",
          "name": "from",
          "type": "address"
        },
        {
          "internalType": "address",
          "name": "to",
          "type": "address"
        },
        {
          "internalType": "uint256",
          "name": "tokenId",
          "type": "uint256"
        }
      ],
      "name": "transferFrom",
      "outputs": [],
      "stateMutability": "nonpayable",
      "type": "function"
    },
    {
      "inputs": [
        {
          "internalType": "address",
          "name": "newOwner",
          "type": "address"
        }
      ],
      "name": "transferOwnership",
      "outputs": [],
      "stateMutability": "nonpayable",
      "type": "function"
    },
    {
      "inputs": [
        {
          "internalType": "uint256",
          "name": "tokenId",
          "type": "uint256"
        }
      ],
      "name": "verifyBatch",
      "outputs": [
        {
          "components": [
            {
              "internalType": "string",
              "name": "ipfsHash",
              "type": "string"
            },
            {
              "internalType": "string",
              "name": "batchId",
              "type": "string"
            },
            {
              "internalType": "string",
              "name": "drugName",
              "type": "string"
            },
            {
              "internalType": "string",
              "name": "manufacturer",
              "type": "string"
            },
            {
              "internalType": "uint256",
              "name": "mintedAt",
              "type": "uint256"
            },
            {
              "internalType": "bool",
              "name": "isAuthentic",
              "type": "bool"
            }
          ],
          "internalType": "struct TrustChain.BatchInfo",
          "name": "info",
          "type": "tuple"
        },
        {
          "components": [
            {
              "internalType": "address",
              "name": "holder",
              "type": "address"
            },
            {
              "internalType": "uint256",
              "name": "timestamp",
              "type": "uint256"
            },
            {
              "internalType": "string",
              "name": "role",
              "type": "string"
            }
          ],
          "internalType": "struct TrustChain.CustodyRecord[]",
          "name": "trail",
          "type": "tuple[]"
        }
      ],
      "stateMutability": "view",
      "type": "function"
    }
  ],
  "bytecode": "0x60806040523480156200001157600080fd5b506040518060400160405280600a81526020017f5472757374436861696e000000000000000000000000000000000000000000008152506040518060400160405280600581526020017f545255535400000000000000000000000000000000000000000000000000000081525081600090816200008f919062000412565b508060019081620000a1919062000412565b505050620000c4620000b8620000ca60201b60201c565b620000d260201b60201c565b620004f9565b600033905090565b6000600660009054906101000a900473ffffffffffffffffffffffffffffffffffffffff16905081600660006101000a81548173ffffffffffffffffffffffffffffffffffffffff021916908373ffffffffffffffffffffffffffffffffffffffff1602179055508173ffffffffffffffffffffffffffffffffffffffff168173ffffffffffffffffffffffffffffffffffffffff167f8be0079c531659141344cd1fd0a4f28419497f9722a3daafe3b4186f6b6457e060405160405180910390a35050565b600081519050919050565b7f4e487b7100000000000000000000000000000000000000000000000000000000600052604160045260246000fd5b7f4e487b7100000000000000000000000000000000000000000000000000000000600052602260045260246000fd5b600060028204905060018216806200021a57607f821691505b60208210810362000230576200022f620001d2565b5b50919050565b60008190508160005260206000209050919050565b60006020601f8301049050919050565b600082821b905092915050565b6000600883026200029a7fffffffffffffffffffffffffffffffffffffffffffffffffffffffffffffffff826200025b565b620002a686836200025b565b95508019841693508086168417925050509392505050565b6000819050919050565b6000819050919050565b6000620002f3620002ed620002e784620002be565b620002c8565b620002be565b9050919050565b6000819050919050565b6200030f83620002d2565b620003276200031e82620002fa565b84845462000268565b825550505050565b600090565b6200033e6200032f565b6200034b81848462000304565b505050565b5b8181101562000373576200036760008262000334565b60018101905062000351565b5050565b601f821115620003c2576200038c8162000236565b62000397846200024b565b81016020851015620003a7578190505b620003bf620003b6856200024b565b83018262000350565b50505b505050565b600082821c905092915050565b6000620003e760001984600802620003c7565b1980831691505092915050565b6000620004028383620003d4565b9150826002028217905092915050565b6200041d8262000198565b67ffffffffffffffff811115620004395762000438620001a3565b5b62000445825462000201565b6200045282828562000377565b600060209050601f8311600181146200048a576000841562000475578287015190505b620004818582620003f4565b865550620004f1565b601f1984166200049a8662000236565b60005b82811015620004c4578489015182556001820191506020850194506020810190506200049d565b86831015620004e45784890151620004e0601f891682620003d4565b8355505b6001600288020188555050505b505050505050565b613e0080620005096000396000f3fe608060405234801561001057600080fd5b50600436106101425760003560e01c80638da5cb5b116100b8578063b88d4fde1161007c578063b88d4fde1461037c578063c87b56dd14610398578063dacbb21a146103c8578063dfe3a3ae146103f8578063e985e9c514610429578063f2fde38b1461045957610142565b80638da5cb5b146102d3578063910bc3a1146102f157806395d89b411461030d578063a22cb4651461032b578063b32c4d8d1461034757610142565b806342842e0e1161010a57806342842e0e146101fd5780636352211e1461021957806369ff6abb14610249578063707917ba1461026757806370a0823114610299578063715018a6146102c957610142565b806301ffc9a71461014757806306fdde0314610177578063081812fc14610195578063095ea7b3146101c557806323b872dd146101e1575b600080fd5b610161600480360381019061015c91906126b5565b610475565b60405161016e91906126fd565b60405180910390f35b61017f610557565b60405161018c91906127a8565b60405180910390f35b6101af60048036038101906101aa9190612800565b6105e9565b6040516101bc919061286e565b60405180910390f35b6101df60048036038101906101da91906128b5565b61062f565b005b6101fb60048036038101906101f691906128f5565b610746565b005b610217600480360381019061021291906128f5565b6107a6565b005b610233600480360381019061022e9190612800565b6107c6565b604051610240919061286e565b60405180910390f35b61025161084c565b60405161025e9190612957565b60405180910390f35b610281600480360381019061027c9190612972565b61085d565b604051610290939291906129b2565b60405180910390f35b6102b360048036038101906102ae91906129f0565b61094c565b6040516102c09190612957565b60405180910390f35b6102d1610a03565b005b6102db610a17565b6040516102e8919061286e565b60405180910390f35b61030b60048036038101906103069190612b52565b610a41565b005b610315610bda565b60405161032291906127a8565b60405180910390f35b61034560048036038101906103409190612bed565b610c6c565b005b610361600480360381019061035c9190612800565b610c82565b60405161037396959493929190612c2d565b60405180910390f35b61039660048036038101906103919190612d4b565b610eeb565b005b6103b260048036038101906103ad9190612800565b610f4d565b6040516103bf91906127a8565b60405180910390f35b6103e260048036038101906103dd9190612dce565b610fb5565b6040516103ef9190612957565b60405180910390f35b610412600480360381019061040d9190612800565b6111f6565b6040516104209291906130e0565b60405180910390f35b610443600480360381019061043e9190613117565b61163d565b60405161045091906126fd565b60405180910390f35b610473600480360381019061046e91906129f0565b6116d1565b005b60007f80ac58cd000000000000000000000000000000000000000000000000000000007bffffffffffffffffffffffffffffffffffffffffffffffffffffffff1916827bffffffffffffffffffffffffffffffffffffffffffffffffffffffff1916148061054057507f5b5e139f000000000000000000000000000000000000000000000000000000007bffffffffffffffffffffffffffffffffffffffffffffffffffffffff1916827bffffffffffffffffffffffffffffffffffffffffffffffffffffffff1916145b80610550575061054f82611754565b5b9050919050565b60606000805461056690613186565b80601f016020809104026020016040519081016040528092919081815260200182805461059290613186565b80156105df5780601f106105b4576101008083540402835291602001916105df565b820191906000526020600020905b8154815290600101906020018083116105c257829003601f168201915b5050505050905090565b60006105f4826117be565b6004600083815260200190815260200160002060009054906101000a900473ffffffffffffffffffffffffffffffffffffffff169050919050565b600061063a826107c6565b90508073ffffffffffffffffffffffffffffffffffffffff168373ffffffffffffffffffffffffffffffffffffffff16036106aa576040517f08c379a00000000000000000000000000000000000000000000000000000000081526004016106a190613229565b60405180910390fd5b8073ffffffffffffffffffffffffffffffffffffffff166106c9611809565b73ffffffffffffffffffffffffffffffffffffffff1614806106f857506106f7816106f2611809565b61163d565b5b610737576040517f08c379a000000000000000000000000000000000000000000000000000000000815260040161072e906132bb565b60405180910390fd5b6107418383611811565b505050565b610757610751611809565b826118ca565b610796576040517f08c379a000000000000000000000000000000000000000000000000000000000815260040161078d9061334d565b60405180910390fd5b6107a183838361195f565b505050565b6107c183838360405180602001604052806000815250610eeb565b505050565b6000806107d283611c58565b9050600073ffffffffffffffffffffffffffffffffffffffff168173ffffffffffffffffffffffffffffffffffffffff1603610843576040517f08c379a000000000000000000000000000000000000000000000000000000000815260040161083a906133b9565b60405180910390fd5b80915050919050565b60006108586007611c95565b905090565b6009602052816000526040600020818154811061087957600080fd5b9060005260206000209060030201600091509150508060000160009054906101000a900473ffffffffffffffffffffffffffffffffffffffff16908060010154908060020180546108c990613186565b80601f01602080910402602001604051908101604052809291908181526020018280546108f590613186565b80156109425780601f1061091757610100808354040283529160200191610942565b820191906000526020600020905b81548152906001019060200180831161092557829003601f168201915b5050505050905083565b60008073ffffffffffffffffffffffffffffffffffffffff168273ffffffffffffffffffffffffffffffffffffffff16036109bc576040517f08c379a00000000000000000000000000000000000000000000000000000000081526004016109b39061344b565b60405180910390fd5b600360008373ffffffffffffffffffffffffffffffffffffffff1673ffffffffffffffffffffffffffffffffffffffff168152602001908152602001600020549050919050565b610a0b611ca3565b610a156000611d21565b565b6000600660009054906101000a900473ffffffffffffffffffffffffffffffffffffffff16905090565b3373ffffffffffffffffffffffffffffffffffffffff16610a61846107c6565b73ffffffffffffffffffffffffffffffffffffffff1614610ab7576040517f08c379a0000000000000000000000000000000000000000000000000000000008152600401610aae906134b7565b60405180910390fd5b6009600084815260200190815260200160002060405180606001604052808473ffffffffffffffffffffffffffffffffffffffff16815260200142815260200183815250908060018154018082558091505060019003906000526020600020906003020160009091909190915060008201518160000160006101000a81548173ffffffffffffffffffffffffffffffffffffffff021916908373ffffffffffffffffffffffffffffffffffffffff160217905550602082015181600101556040820151816002019081610b8a9190613683565b505050610b9833838561195f565b7fd67aa7c45f61c95d774abbdd7384089523fabb58f544debbc64c53e937d9774183338484604051610bcd9493929190613755565b60405180910390a1505050565b606060018054610be990613186565b80601f0160208091040260200160405190810160405280929190818152602001828054610c1590613186565b8015610c625780601f10610c3757610100808354040283529160200191610c62565b820191906000526020600020905b815481529060010190602001808311610c4557829003601f168201915b5050505050905090565b610c7e610c77611809565b8383611de7565b5050565b6008602052806000526040600020600091509050806000018054610ca590613186565b80601f0160208091040260200160405190810160405280929190818152602001828054610cd190613186565b8015610d1e5780601f10610cf357610100808354040283529160200191610d1e565b820191906000526020600020905b815481529060010190602001808311610d0157829003601f168201915b505050505090806001018054610d3390613186565b80601f0160208091040260200160405190810160405280929190818152602001828054610d5f90613186565b8015610dac5780601f10610d8157610100808354040283529160200191610dac565b820191906000526020600020905b815481529060010190602001808311610d8f57829003601f168201915b505050505090806002018054610dc190613186565b80601f0160208091040260200160405190810160405280929190818152602001828054610ded90613186565b8015610e3a5780601f10610e0f57610100808354040283529160200191610e3a565b820191906000526020600020905b815481529060010190602001808311610e1d57829003601f168201915b505050505090806003018054610e4f90613186565b80601f0160208091040260200160405190810160405280929190818152602001828054610e7b90613186565b8015610ec85780601f10610e9d57610100808354040283529160200191610ec8565b820191906000526020600020905b815481529060010190602001808311610eab57829003601f168201915b5050505050908060040154908060050160009054906101000a900460ff16905086565b610efc610ef6611809565b836118ca565b610f3b576040517f08c379a0000000000000000000000000000000000000000000000000000000008152600401610f329061334d565b60405180910390fd5b610f4784848484611f53565b50505050565b6060610f58826117be565b6000610f62611faf565b90506000815111610f825760405180602001604052806000815250610fad565b80610f8c84611fc6565b604051602001610f9d9291906137dd565b6040516020818303038152906040525b915050919050565b6000610fc16007612094565b6000610fcd6007611c95565b9050610fd987826120aa565b6040518060c00160405280878152602001868152602001858152602001848152602001428152602001600115158152506008600083815260200190815260200160002060008201518160000190816110319190613683565b5060208201518160010190816110479190613683565b50604082015181600201908161105d9190613683565b5060608201518160030190816110739190613683565b506080820151816004015560a08201518160050160006101000a81548160ff0219169083151502179055509050506009600082815260200190815260200160002060405180606001604052808973ffffffffffffffffffffffffffffffffffffffff1681526020014281526020016040518060400160405280600c81526020017f4d616e7566616374757265720000000000000000000000000000000000000000815250815250908060018154018082558091505060019003906000526020600020906003020160009091909190915060008201518160000160006101000a81548173ffffffffffffffffffffffffffffffffffffffff021916908373ffffffffffffffffffffffffffffffffffffffff1602179055506020820151816001015560408201518160020190816111a99190613683565b5050507fa02571900e533c09db0b3423ea96975e67bf89ed146a8667304aa4237f2cd8808186868a6040516111e19493929190613801565b60405180910390a18091505095945050505050565b6111fe612611565b6060611209836122c7565b611248576040517f08c379a000000000000000000000000000000000000000000000000000000000815260040161123f906138a0565b60405180910390fd5b6008600084815260200190815260200160002060096000858152602001908152602001600020816040518060c001604052908160008201805461128a90613186565b80601f01602080910402602001604051908101604052809291908181526020018280546112b690613186565b80156113035780601f106112d857610100808354040283529160200191611303565b820191906000526020600020905b8154815290600101906020018083116112e657829003601f168201915b5050505050815260200160018201805461131c90613186565b80601f016020809104026020016040519081016040528092919081815260200182805461134890613186565b80156113955780601f1061136a57610100808354040283529160200191611395565b820191906000526020600020905b81548152906001019060200180831161137857829003601f168201915b505050505081526020016002820180546113ae90613186565b80601f01602080910402602001604051908101604052809291908181526020018280546113da90613186565b80156114275780601f106113fc57610100808354040283529160200191611427565b820191906000526020600020905b81548152906001019060200180831161140a57829003601f168201915b5050505050815260200160038201805461144090613186565b80601f016020809104026020016040519081016040528092919081815260200182805461146c90613186565b80156114b95780601f1061148e576101008083540402835291602001916114b9565b820191906000526020600020905b81548152906001019060200180831161149c57829003601f168201915b50505050508152602001600482015481526020016005820160009054906101000a900460ff161515151581525050915080805480602002602001604051908101604052809291908181526020016000905b8282101561162e57838290600052602060002090600302016040518060600160405290816000820160009054906101000a900473ffffffffffffffffffffffffffffffffffffffff1673ffffffffffffffffffffffffffffffffffffffff1673ffffffffffffffffffffffffffffffffffffffff1681526020016001820154815260200160028201805461159d90613186565b80601f01602080910402602001604051908101604052809291908181526020018280546115c990613186565b80156116165780601f106115eb57610100808354040283529160200191611616565b820191906000526020600020905b8154815290600101906020018083116115f957829003601f168201915b5050505050815250508152602001906001019061150a565b50505050905091509150915091565b6000600560008473ffffffffffffffffffffffffffffffffffffffff1673ffffffffffffffffffffffffffffffffffffffff16815260200190815260200160002060008373ffffffffffffffffffffffffffffffffffffffff1673ffffffffffffffffffffffffffffffffffffffff16815260200190815260200160002060009054906101000a900460ff16905092915050565b6116d9611ca3565b600073ffffffffffffffffffffffffffffffffffffffff168173ffffffffffffffffffffffffffffffffffffffff1603611748576040517f08c379a000000000000000000000000000000000000000000000000000000000815260040161173f90613932565b60405180910390fd5b61175181611d21565b50565b60007f01ffc9a7000000000000000000000000000000000000000000000000000000007bffffffffffffffffffffffffffffffffffffffffffffffffffffffff1916827bffffffffffffffffffffffffffffffffffffffffffffffffffffffff1916149050919050565b6117c7816122c7565b611806576040517f08c379a00000000000000000000000000000000000000000000000000000000081526004016117fd906133b9565b60405180910390fd5b50565b600033905090565b816004600083815260200190815260200160002060006101000a81548173ffffffffffffffffffffffffffffffffffffffff021916908373ffffffffffffffffffffffffffffffffffffffff160217905550808273ffffffffffffffffffffffffffffffffffffffff16611884836107c6565b73ffffffffffffffffffffffffffffffffffffffff167f8c5be1e5ebec7d5bd14f71427d1e84f3dd0314c0f7b2291e5b200ac8c7c3b92560405160405180910390a45050565b6000806118d6836107c6565b90508073ffffffffffffffffffffffffffffffffffffffff168473ffffffffffffffffffffffffffffffffffffffff1614806119185750611917818561163d565b5b8061195657508373ffffffffffffffffffffffffffffffffffffffff1661193e846105e9565b73ffffffffffffffffffffffffffffffffffffffff16145b91505092915050565b8273ffffffffffffffffffffffffffffffffffffffff1661197f826107c6565b73ffffffffffffffffffffffffffffffffffffffff16146119d5576040517f08c379a00000000000000000000000000000000000000000000000000000000081526004016119cc906139c4565b60405180910390fd5b600073ffffffffffffffffffffffffffffffffffffffff168273ffffffffffffffffffffffffffffffffffffffff1603611a44576040517f08c379a0000000000000000000000000000000000000000000000000000000008152600401611a3b90613a56565b60405180910390fd5b611a518383836001612308565b8273ffffffffffffffffffffffffffffffffffffffff16611a71826107c6565b73ffffffffffffffffffffffffffffffffffffffff1614611ac7576040517f08c379a0000000000000000000000000000000000000000000000000000000008152600401611abe906139c4565b60405180910390fd5b6004600082815260200190815260200160002060006101000a81549073ffffffffffffffffffffffffffffffffffffffff02191690556001600360008573ffffffffffffffffffffffffffffffffffffffff1673ffffffffffffffffffffffffffffffffffffffff168152602001908152602001600020600082825403925050819055506001600360008473ffffffffffffffffffffffffffffffffffffffff1673ffffffffffffffffffffffffffffffffffffffff16815260200190815260200160002060008282540192505081905550816002600083815260200190815260200160002060006101000a81548173ffffffffffffffffffffffffffffffffffffffff021916908373ffffffffffffffffffffffffffffffffffffffff160217905550808273ffffffffffffffffffffffffffffffffffffffff168473ffffffffffffffffffffffffffffffffffffffff167fddf252ad1be2c89b69c2b068fc378daa952ba7f163c4a11628f55a4df523b3ef60405160405180910390a4611c53838383600161230e565b505050565b60006002600083815260200190815260200160002060009054906101000a900473ffffffffffffffffffffffffffffffffffffffff169050919050565b600081600001549050919050565b611cab611809565b73ffffffffffffffffffffffffffffffffffffffff16611cc9610a17565b73ffffffffffffffffffffffffffffffffffffffff1614611d1f576040517f08c379a0000000000000000000000000000000000000000000000000000000008152600401611d1690613ac2565b60405180910390fd5b565b6000600660009054906101000a900473ffffffffffffffffffffffffffffffffffffffff16905081600660006101000a81548173ffffffffffffffffffffffffffffffffffffffff021916908373ffffffffffffffffffffffffffffffffffffffff1602179055508173ffffffffffffffffffffffffffffffffffffffff168173ffffffffffffffffffffffffffffffffffffffff167f8be0079c531659141344cd1fd0a4f28419497f9722a3daafe3b4186f6b6457e060405160405180910390a35050565b8173ffffffffffffffffffffffffffffffffffffffff168373ffffffffffffffffffffffffffffffffffffffff1603611e55576040517f08c379a0000000000000000000000000000000000000000000000000000000008152600401611e4c90613b2e565b60405180910390fd5b80600560008573ffffffffffffffffffffffffffffffffffffffff1673ffffffffffffffffffffffffffffffffffffffff16815260200190815260200160002060008473ffffffffffffffffffffffffffffffffffffffff1673ffffffffffffffffffffffffffffffffffffffff16815260200190815260200160002060006101000a81548160ff0219169083151502179055508173ffffffffffffffffffffffffffffffffffffffff168373ffffffffffffffffffffffffffffffffffffffff167f17307eab39ab6107e8899845ad3d59bd9653f200f220920489ca2b5937696c3183604051611f4691906126fd565b60405180910390a3505050565b611f5e84848461195f565b611f6a84848484612314565b611fa9576040517f08c379a0000000000000000000000000000000000000000000000000000000008152600401611fa090613bc0565b60405180910390fd5b50505050565b606060405180602001604052806000815250905090565b606060006001611fd58461249b565b01905060008167ffffffffffffffff811115611ff457611ff3612a27565b5b6040519080825280601f01601f1916602001820160405280156120265781602001600182028036833780820191505090505b509050600082602001820190505b600115612089578080600190039150507f3031323334353637383961626364656600000000000000000000000000000000600a86061a8153600a858161207d5761207c613be0565b5b04945060008503612034575b819350505050919050565b6001816000016000828254019250508190555050565b600073ffffffffffffffffffffffffffffffffffffffff168273ffffffffffffffffffffffffffffffffffffffff1603612119576040517f08c379a000000000000000000000000000000000000000000000000000000000815260040161211090613c5b565b60405180910390fd5b612122816122c7565b15612162576040517f08c379a000000000000000000000000000000000000000000000000000000000815260040161215990613cc7565b60405180910390fd5b612170600083836001612308565b612179816122c7565b156121b9576040517f08c379a00000000000000000000000000000000000000000000000000000000081526004016121b090613cc7565b60405180910390fd5b6001600360008473ffffffffffffffffffffffffffffffffffffffff1673ffffffffffffffffffffffffffffffffffffffff16815260200190815260200160002060008282540192505081905550816002600083815260200190815260200160002060006101000a81548173ffffffffffffffffffffffffffffffffffffffff021916908373ffffffffffffffffffffffffffffffffffffffff160217905550808273ffffffffffffffffffffffffffffffffffffffff16600073ffffffffffffffffffffffffffffffffffffffff167fddf252ad1be2c89b69c2b068fc378daa952ba7f163c4a11628f55a4df523b3ef60405160405180910390a46122c360008383600161230e565b5050565b60008073ffffffffffffffffffffffffffffffffffffffff166122e983611c58565b73ffffffffffffffffffffffffffffffffffffffff1614159050919050565b50505050565b50505050565b60006123358473ffffffffffffffffffffffffffffffffffffffff166125ee565b1561248e578373ffffffffffffffffffffffffffffffffffffffff1663150b7a0261235e611809565b8786866040518563ffffffff1660e01b81526004016123809493929190613d3c565b6020604051808303816000875af19250505080156123bc57506040513d601f19601f820116820180604052508101906123b99190613d9d565b60015b61243e573d80600081146123ec576040519150601f19603f3d011682016040523d82523d6000602084013e6123f1565b606091505b506000815103612436576040517f08c379a000000000000000000000000000000000000000000000000000000000815260040161242d90613bc0565b60405180910390fd5b805181602001fd5b63150b7a0260e01b7bffffffffffffffffffffffffffffffffffffffffffffffffffffffff1916817bffffffffffffffffffffffffffffffffffffffffffffffffffffffff191614915050612493565b600190505b949350505050565b600080600090507a184f03e93ff9f4daa797ed6e38ed64bf6a1f01000000000000000083106124f9577a184f03e93ff9f4daa797ed6e38ed64bf6a1f01000000000000000083816124ef576124ee613be0565b5b0492506040810190505b6d04ee2d6d415b85acef81000000008310612536576d04ee2d6d415b85acef8100000000838161252c5761252b613be0565b5b0492506020810190505b662386f26fc10000831061256557662386f26fc10000838161255b5761255a613be0565b5b0492506010810190505b6305f5e100831061258e576305f5e100838161258457612583613be0565b5b0492506008810190505b61271083106125b35761271083816125a9576125a8613be0565b5b0492506004810190505b606483106125d657606483816125cc576125cb613be0565b5b0492506002810190505b600a83106125e5576001810190505b80915050919050565b6000808273ffffffffffffffffffffffffffffffffffffffff163b119050919050565b6040518060c0016040528060608152602001606081526020016060815260200160608152602001600081526020016000151581525090565b6000604051905090565b600080fd5b600080fd5b60007fffffffff0000000000000000000000000000000000000000000000000000000082169050919050565b6126928161265d565b811461269d57600080fd5b50565b6000813590506126af81612689565b92915050565b6000602082840312156126cb576126ca612653565b5b60006126d9848285016126a0565b91505092915050565b60008115159050919050565b6126f7816126e2565b82525050565b600060208201905061271260008301846126ee565b92915050565b600081519050919050565b600082825260208201905092915050565b60005b83811015612752578082015181840152602081019050612737565b60008484015250505050565b6000601f19601f8301169050919050565b600061277a82612718565b6127848185612723565b9350612794818560208601612734565b61279d8161275e565b840191505092915050565b600060208201905081810360008301526127c2818461276f565b905092915050565b6000819050919050565b6127dd816127ca565b81146127e857600080fd5b50565b6000813590506127fa816127d4565b92915050565b60006020828403121561281657612815612653565b5b6000612824848285016127eb565b91505092915050565b600073ffffffffffffffffffffffffffffffffffffffff82169050919050565b60006128588261282d565b9050919050565b6128688161284d565b82525050565b6000602082019050612883600083018461285f565b92915050565b6128928161284d565b811461289d57600080fd5b50565b6000813590506128af81612889565b92915050565b600080604083850312156128cc576128cb612653565b5b60006128da858286016128a0565b92505060206128eb858286016127eb565b9150509250929050565b60008060006060848603121561290e5761290d612653565b5b600061291c868287016128a0565b935050602061292d868287016128a0565b925050604061293e868287016127eb565b9150509250925092565b612951816127ca565b82525050565b600060208201905061296c6000830184612948565b92915050565b6000806040838503121561298957612988612653565b5b6000612997858286016127eb565b92505060206129a8858286016127eb565b9150509250929050565b60006060820190506129c7600083018661285f565b6129d46020830185612948565b81810360408301526129e6818461276f565b9050949350505050565b600060208284031215612a0657612a05612653565b5b6000612a14848285016128a0565b91505092915050565b600080fd5b600080fd5b7f4e487b7100000000000000000000000000000000000000000000000000000000600052604160045260246000fd5b612a5f8261275e565b810181811067ffffffffffffffff82111715612a7e57612a7d612a27565b5b80604052505050565b6000612a91612649565b9050612a9d8282612a56565b919050565b600067ffffffffffffffff821115612abd57612abc612a27565b5b612ac68261275e565b9050602081019050919050565b82818337600083830152505050565b6000612af5612af084612aa2565b612a87565b905082815260208101848484011115612b1157612b10612a22565b5b612b1c848285612ad3565b509392505050565b600082601f830112612b3957612b38612a1d565b5b8135612b49848260208601612ae2565b91505092915050565b600080600060608486031215612b6b57612b6a612653565b5b6000612b79868287016127eb565b9350506020612b8a868287016128a0565b925050604084013567ffffffffffffffff811115612bab57612baa612658565b5b612bb786828701612b24565b9150509250925092565b612bca816126e2565b8114612bd557600080fd5b50565b600081359050612be781612bc1565b92915050565b60008060408385031215612c0457612c03612653565b5b6000612c12858286016128a0565b9250506020612c2385828601612bd8565b9150509250929050565b600060c0820190508181036000830152612c47818961276f565b90508181036020830152612c5b818861276f565b90508181036040830152612c6f818761276f565b90508181036060830152612c83818661276f565b9050612c926080830185612948565b612c9f60a08301846126ee565b979650505050505050565b600067ffffffffffffffff821115612cc557612cc4612a27565b5b612cce8261275e565b9050602081019050919050565b6000612cee612ce984612caa565b612a87565b905082815260208101848484011115612d0a57612d09612a22565b5b612d15848285612ad3565b509392505050565b600082601f830112612d3257612d31612a1d565b5b8135612d42848260208601612cdb565b91505092915050565b60008060008060808587031215612d6557612d64612653565b5b6000612d73878288016128a0565b9450506020612d84878288016128a0565b9350506040612d95878288016127eb565b925050606085013567ffffffffffffffff811115612db657612db5612658565b5b612dc287828801612d1d565b91505092959194509250565b600080600080600060a08688031215612dea57612de9612653565b5b6000612df8888289016128a0565b955050602086013567ffffffffffffffff811115612e1957612e18612658565b5b612e2588828901612b24565b945050604086013567ffffffffffffffff811115612e4657612e45612658565b5b612e5288828901612b24565b935050606086013567ffffffffffffffff811115612e7357612e72612658565b5b612e7f88828901612b24565b925050608086013567ffffffffffffffff811115612ea057612e9f612658565b5b612eac88828901612b24565b9150509295509295909350565b600082825260208201905092915050565b6000612ed582612718565b612edf8185612eb9565b9350612eef818560208601612734565b612ef88161275e565b840191505092915050565b612f0c816127ca565b82525050565b612f1b816126e2565b82525050565b600060c0830160008301518482036000860152612f3e8282612eca565b91505060208301518482036020860152612f588282612eca565b91505060408301518482036040860152612f728282612eca565b91505060608301518482036060860152612f8c8282612eca565b9150506080830151612fa16080860182612f03565b5060a0830151612fb460a0860182612f12565b508091505092915050565b600081519050919050565b600082825260208201905092915050565b6000819050602082019050919050565b612ff48161284d565b82525050565b60006060830160008301516130126000860182612feb565b5060208301516130256020860182612f03565b506040830151848203604086015261303d8282612eca565b9150508091505092915050565b60006130568383612ffa565b905092915050565b6000602082019050919050565b600061307682612fbf565b6130808185612fca565b93508360208202850161309285612fdb565b8060005b858110156130ce57848403895281516130af858261304a565b94506130ba8361305e565b925060208a01995050600181019050613096565b50829750879550505050505092915050565b600060408201905081810360008301526130fa8185612f21565b9050818103602083015261310e818461306b565b90509392505050565b6000806040838503121561312e5761312d612653565b5b600061313c858286016128a0565b925050602061314d858286016128a0565b9150509250929050565b7f4e487b7100000000000000000000000000000000000000000000000000000000600052602260045260246000fd5b6000600282049050600182168061319e57607f821691505b6020821081036131b1576131b0613157565b5b50919050565b7f4552433732313a20617070726f76616c20746f2063757272656e74206f776e6560008201527f7200000000000000000000000000000000000000000000000000000000000000602082015250565b6000613213602183612723565b915061321e826131b7565b604082019050919050565b6000602082019050818103600083015261324281613206565b9050919050565b7f4552433732313a20617070726f76652063616c6c6572206973206e6f7420746f60008201527f6b656e206f776e6572206f7220617070726f76656420666f7220616c6c000000602082015250565b60006132a5603d83612723565b91506132b082613249565b604082019050919050565b600060208201905081810360008301526132d481613298565b9050919050565b7f4552433732313a2063616c6c6572206973206e6f7420746f6b656e206f776e6560008201527f72206f7220617070726f76656400000000000000000000000000000000000000602082015250565b6000613337602d83612723565b9150613342826132db565b604082019050919050565b600060208201905081810360008301526133668161332a565b9050919050565b7f4552433732313a20696e76616c696420746f6b656e2049440000000000000000600082015250565b60006133a3601883612723565b91506133ae8261336d565b602082019050919050565b600060208201905081810360008301526133d281613396565b9050919050565b7f4552433732313a2061646472657373207a65726f206973206e6f74206120766160008201527f6c6964206f776e65720000000000000000000000000000000000000000000000602082015250565b6000613435602983612723565b9150613440826133d9565b604082019050919050565b6000602082019050818103600083015261346481613428565b9050919050565b7f4f6e6c792063757272656e74206f776e65722063616e207472616e7366657200600082015250565b60006134a1601f83612723565b91506134ac8261346b565b602082019050919050565b600060208201905081810360008301526134d081613494565b9050919050565b60008190508160005260206000209050919050565b60006020601f8301049050919050565b600082821b905092915050565b6000600883026135397fffffffffffffffffffffffffffffffffffffffffffffffffffffffffffffffff826134fc565b61354386836134fc565b95508019841693508086168417925050509392505050565b6000819050919050565b600061358061357b613576846127ca565b61355b565b6127ca565b9050919050565b6000819050919050565b61359a83613565565b6135ae6135a682613587565b848454613509565b825550505050565b600090565b6135c36135b6565b6135ce818484613591565b505050565b5b818110156135f2576135e76000826135bb565b6001810190506135d4565b5050565b601f82111561363757613608816134d7565b613611846134ec565b81016020851015613620578190505b61363461362c856134ec565b8301826135d3565b50505b505050565b600082821c905092915050565b600061365a6000198460080261363c565b1980831691505092915050565b60006136738383613649565b9150826002028217905092915050565b61368c82612718565b67ffffffffffffffff8111156136a5576136a4612a27565b5b6136af8254613186565b6136ba8282856135f6565b600060209050601f8311600181146136ed57600084156136db578287015190505b6136e58582613667565b86555061374d565b601f1984166136fb866134d7565b60005b82811015613723578489015182556001820191506020850194506020810190506136fe565b86831015613740578489015161373c601f891682613649565b8355505b6001600288020188555050505b505050505050565b600060808201905061376a6000830187612948565b613777602083018661285f565b613784604083018561285f565b8181036060830152613796818461276f565b905095945050505050565b600081905092915050565b60006137b782612718565b6137c181856137a1565b93506137d1818560208601612734565b80840191505092915050565b60006137e982856137ac565b91506137f582846137ac565b91508190509392505050565b60006080820190506138166000830187612948565b8181036020830152613828818661276f565b9050818103604083015261383c818561276f565b905061384b606083018461285f565b95945050505050565b7f546f6b656e20646f6573206e6f74206578697374000000000000000000000000600082015250565b600061388a601483612723565b915061389582613854565b602082019050919050565b600060208201905081810360008301526138b98161387d565b9050919050565b7f4f776e61626c653a206e6577206f776e657220697320746865207a65726f206160008201527f6464726573730000000000000000000000000000000000000000000000000000602082015250565b600061391c602683612723565b9150613927826138c0565b604082019050919050565b6000602082019050818103600083015261394b8161390f565b9050919050565b7f4552433732313a207472616e736665722066726f6d20696e636f72726563742060008201527f6f776e6572000000000000000000000000000000000000000000000000000000602082015250565b60006139ae602583612723565b91506139b982613952565b604082019050919050565b600060208201905081810360008301526139dd816139a1565b9050919050565b7f4552433732313a207472616e7366657220746f20746865207a65726f2061646460008201527f7265737300000000000000000000000000000000000000000000000000000000602082015250565b6000613a40602483612723565b9150613a4b826139e4565b604082019050919050565b60006020820190508181036000830152613a6f81613a33565b9050919050565b7f4f776e61626c653a2063616c6c6572206973206e6f7420746865206f776e6572600082015250565b6000613aac602083612723565b9150613ab782613a76565b602082019050919050565b60006020820190508181036000830152613adb81613a9f565b9050919050565b7f4552433732313a20617070726f766520746f2063616c6c657200000000000000600082015250565b6000613b18601983612723565b9150613b2382613ae2565b602082019050919050565b60006020820190508181036000830152613b4781613b0b565b9050919050565b7f4552433732313a207472616e7366657220746f206e6f6e20455243373231526560008201527f63656976657220696d706c656d656e7465720000000000000000000000000000602082015250565b6000613baa603283612723565b9150613bb582613b4e565b604082019050919050565b60006020820190508181036000830152613bd981613b9d565b9050919050565b7f4e487b7100000000000000000000000000000000000000000000000000000000600052601260045260246000fd5b7f4552433732313a206d696e7420746f20746865207a65726f2061646472657373600082015250565b6000613c45602083612723565b9150613c5082613c0f565b602082019050919050565b60006020820190508181036000830152613c7481613c38565b9050919050565b7f4552433732313a20746f6b656e20616c7265616479206d696e74656400000000600082015250565b6000613cb1601c83612723565b9150613cbc82613c7b565b602082019050919050565b60006020820190508181036000830152613ce081613ca4565b9050919050565b600081519050919050565b600082825260208201905092915050565b6000613d0e82613ce7565b613d188185613cf2565b9350613d28818560208601612734565b613d318161275e565b840191505092915050565b6000608082019050613d51600083018761285f565b613d5e602083018661285f565b613d6b6040830185612948565b8181036060830152613d7d8184613d03565b905095945050505050565b600081519050613d9781612689565b92915050565b600060208284031215613db357613db2612653565b5b6000613dc184828501613d88565b9150509291505056fea2646970667358221220bf71dd30239162d20f7d3b580ab03fef51d64b0ea197a8cc3620e4881116533d64736f6c63430008130033",
  "linkReferences": {},
  "deployedLinkReferences": {}
}